{
  "_format": "hh-sol-artifact-1",
  "contractName": "Twitter",
  "sourceName": "contracts/Twitter.sol",
  "abi": [
    {
      "inputs": [],
      "stateMutability": "nonpayable",
      "type": "constructor"
    },
    {
      "anonymous": false,
      "inputs": [
        {
          "indexed": false,
          "internalType": "address",
          "name": "tweeter",
          "type": "address"
        },
        {
          "indexed": false,
          "internalType": "uint256",
          "name": "id",
          "type": "uint256"
        },
        {
          "indexed": false,
          "internalType": "string",
          "name": "tweetText",
          "type": "string"
        },
        {
          "indexed": false,
          "internalType": "string",
          "name": "tweetImg",
          "type": "string"
        },
        {
          "indexed": false,
          "internalType": "bool",
          "name": "isDeleted",
          "type": "bool"
        },
        {
          "indexed": false,
          "internalType": "uint256",
          "name": "timestamp",
          "type": "uint256"
        }
      ],
      "name": "TweetCreated",
      "type": "event"
    },
    {
      "anonymous": false,
      "inputs": [
        {
          "indexed": false,
          "internalType": "uint256",
          "name": "id",
          "type": "uint256"
        },
        {
          "indexed": false,
          "internalType": "bool",
          "name": "isDeleted",
          "type": "bool"
        }
      ],
      "name": "TweetDeleted",
      "type": "event"
    },
    {
      "inputs": [
        {
          "internalType": "string",
          "name": "tweetText",
          "type": "string"
        },
        {
          "internalType": "string",
          "name": "tweetImg",
          "type": "string"
        }
      ],
      "name": "addTweet",
      "outputs": [],
      "stateMutability": "payable",
      "type": "function"
    },
    {
      "inputs": [
        {
          "internalType": "uint256",
          "name": "tweetId",
          "type": "uint256"
        },
        {
          "internalType": "bool",
          "name": "isDeleted",
          "type": "bool"
        }
      ],
      "name": "deleteTweet",
      "outputs": [],
      "stateMutability": "nonpayable",
      "type": "function"
    },
    {
      "inputs": [],
      "name": "getAllTweets",
      "outputs": [
        {
          "components": [
            {
              "internalType": "address",
              "name": "tweeter",
              "type": "address"
            },
            {
              "internalType": "uint256",
              "name": "id",
              "type": "uint256"
            },
            {
              "internalType": "string",
              "name": "tweetText",
              "type": "string"
            },
            {
              "internalType": "string",
              "name": "tweetImg",
              "type": "string"
            },
            {
              "internalType": "bool",
              "name": "isDeleted",
              "type": "bool"
            },
            {
              "internalType": "uint256",
              "name": "timestamp",
              "type": "uint256"
            }
          ],
          "internalType": "struct Twitter.tweet[]",
          "name": "",
          "type": "tuple[]"
        }
      ],
      "stateMutability": "view",
      "type": "function"
    },
    {
      "inputs": [],
      "name": "getMyTweets",
      "outputs": [
        {
          "components": [
            {
              "internalType": "address",
              "name": "tweeter",
              "type": "address"
            },
            {
              "internalType": "uint256",
              "name": "id",
              "type": "uint256"
            },
            {
              "internalType": "string",
              "name": "tweetText",
              "type": "string"
            },
            {
              "internalType": "string",
              "name": "tweetImg",
              "type": "string"
            },
            {
              "internalType": "bool",
              "name": "isDeleted",
              "type": "bool"
            },
            {
              "internalType": "uint256",
              "name": "timestamp",
              "type": "uint256"
            }
          ],
          "internalType": "struct Twitter.tweet[]",
          "name": "",
          "type": "tuple[]"
        }
      ],
      "stateMutability": "view",
      "type": "function"
    },
    {
      "inputs": [
        {
          "internalType": "uint256",
          "name": "id",
          "type": "uint256"
        }
      ],
      "name": "getTweet",
      "outputs": [
        {
          "internalType": "string",
          "name": "",
          "type": "string"
        },
        {
          "internalType": "string",
          "name": "",
          "type": "string"
        },
        {
          "internalType": "address",
          "name": "",
          "type": "address"
        }
      ],
      "stateMutability": "view",
      "type": "function"
    },
    {
      "inputs": [
        {
          "internalType": "address",
          "name": "userAdress",
          "type": "address"
        }
      ],
      "name": "getUser",
      "outputs": [
        {
          "components": [
            {
              "internalType": "string",
              "name": "name",
              "type": "string"
            },
            {
              "internalType": "string",
              "name": "bio",
              "type": "string"
            },
            {
              "internalType": "string",
              "name": "profileImg",
              "type": "string"
            },
            {
              "internalType": "string",
              "name": "profileBanner",
              "type": "string"
            }
          ],
          "internalType": "struct Twitter.user",
          "name": "",
          "type": "tuple"
        }
      ],
      "stateMutability": "view",
      "type": "function"
    },
    {
      "inputs": [],
      "name": "owner",
      "outputs": [
        {
          "internalType": "address",
          "name": "",
          "type": "address"
        }
      ],
      "stateMutability": "view",
      "type": "function"
    },
    {
      "inputs": [
        {
          "internalType": "string",
          "name": "newName",
          "type": "string"
        },
        {
          "internalType": "string",
          "name": "newBio",
          "type": "string"
        },
        {
          "internalType": "string",
          "name": "newProfileImg",
          "type": "string"
        },
        {
          "internalType": "string",
          "name": "newProfileBanner",
          "type": "string"
        }
      ],
      "name": "updateUserDetails",
      "outputs": [],
      "stateMutability": "nonpayable",
      "type": "function"
    }
  ],
  "bytecode": "0x608060405234801561001057600080fd5b50336000806101000a81548173ffffffffffffffffffffffffffffffffffffffff021916908373ffffffffffffffffffffffffffffffffffffffff1602179055506000600181905550611ee1806100686000396000f3fe60806040526004361061007b5760003560e01c80638da5cb5b1161004e5780638da5cb5b1461012d578063aefedbc214610158578063c3ad5ecb14610183578063f0312a37146101c25761007b565b806353256135146100805780636f77926b146100ab5780637e75b408146100e85780638a1bff9e14610104575b600080fd5b34801561008c57600080fd5b506100956101eb565b6040516100a291906113dc565b60405180910390f35b3480156100b757600080fd5b506100d260048036038101906100cd919061143e565b610547565b6040516100df91906114e3565b60405180910390f35b61010260048036038101906100fd919061163a565b6107e8565b005b34801561011057600080fd5b5061012b600480360381019061012691906116b2565b6109ab565b005b34801561013957600080fd5b50610142610a3d565b60405161014f9190611798565b60405180910390f35b34801561016457600080fd5b5061016d610a61565b60405161017a91906113dc565b60405180910390f35b34801561018f57600080fd5b506101aa60048036038101906101a591906117df565b610e2b565b6040516101b993929190611856565b60405180910390f35b3480156101ce57600080fd5b506101e960048036038101906101e491906118c7565b611000565b005b6060600060015467ffffffffffffffff81111561020b5761020a61150f565b5b60405190808252806020026020018201604052801561024457816020015b61023161110f565b8152602001906001900390816102295790505b5090506000805b60015481101561048b57600015156002600083815260200190815260200160002060040160009054906101000a900460ff1615150361047857600260008281526020019081526020016000206040518060c00160405290816000820160009054906101000a900473ffffffffffffffffffffffffffffffffffffffff1673ffffffffffffffffffffffffffffffffffffffff1673ffffffffffffffffffffffffffffffffffffffff1681526020016001820154815260200160028201805461031290611936565b80601f016020809104026020016040519081016040528092919081815260200182805461033e90611936565b801561038b5780601f106103605761010080835404028352916020019161038b565b820191906000526020600020905b81548152906001019060200180831161036e57829003601f168201915b505050505081526020016003820180546103a490611936565b80601f01602080910402602001604051908101604052809291908181526020018280546103d090611936565b801561041d5780601f106103f25761010080835404028352916020019161041d565b820191906000526020600020905b81548152906001019060200180831161040057829003601f168201915b505050505081526020016004820160009054906101000a900460ff1615151515815260200160058201548152505083838151811061045e5761045d611967565b5b60200260200101819052508180610474906119c5565b9250505b8080610483906119c5565b91505061024b565b5060008167ffffffffffffffff8111156104a8576104a761150f565b5b6040519080825280602002602001820160405280156104e157816020015b6104ce61110f565b8152602001906001900390816104c65790505b50905060005b60015481101561053d5783818151811061050457610503611967565b5b602002602001015182828151811061051f5761051e611967565b5b60200260200101819052508080610535906119c5565b9150506104e7565b5080935050505090565b61054f61115d565b600360008373ffffffffffffffffffffffffffffffffffffffff1673ffffffffffffffffffffffffffffffffffffffff1681526020019081526020016000206040518060800160405290816000820180546105a990611936565b80601f01602080910402602001604051908101604052809291908181526020018280546105d590611936565b80156106225780601f106105f757610100808354040283529160200191610622565b820191906000526020600020905b81548152906001019060200180831161060557829003601f168201915b5050505050815260200160018201805461063b90611936565b80601f016020809104026020016040519081016040528092919081815260200182805461066790611936565b80156106b45780601f10610689576101008083540402835291602001916106b4565b820191906000526020600020905b81548152906001019060200180831161069757829003601f168201915b505050505081526020016002820180546106cd90611936565b80601f01602080910402602001604051908101604052809291908181526020018280546106f990611936565b80156107465780601f1061071b57610100808354040283529160200191610746565b820191906000526020600020905b81548152906001019060200180831161072957829003601f168201915b5050505050815260200160038201805461075f90611936565b80601f016020809104026020016040519081016040528092919081815260200182805461078b90611936565b80156107d85780601f106107ad576101008083540402835291602001916107d8565b820191906000526020600020905b8154815290600101906020018083116107bb57829003601f168201915b5050505050815250509050919050565b670de0b6b3a76400003414610832576040517f08c379a000000000000000000000000000000000000000000000000000000000815260040161082990611a59565b60405180910390fd5b600060026000600154815260200190815260200160002090508281600201908161085c9190611c25565b508181600301908161086e9190611c25565b50338160000160006101000a81548173ffffffffffffffffffffffffffffffffffffffff021916908373ffffffffffffffffffffffffffffffffffffffff160217905550600154816001018190555060008160040160006101000a81548160ff0219169083151502179055504281600501819055507fc73b5bb33fb601eeec75daf49de95251edc92969aa0758933778a7b8089d776533600154858560004260405161091f96959493929190611d15565b60405180910390a16001600081548092919061093a906119c5565b919050555060008054906101000a900473ffffffffffffffffffffffffffffffffffffffff1673ffffffffffffffffffffffffffffffffffffffff166108fc349081150290604051600060405180830381858888f193505050501580156109a5573d6000803e3d6000fd5b50505050565b6000600360003373ffffffffffffffffffffffffffffffffffffffff1673ffffffffffffffffffffffffffffffffffffffff1681526020019081526020016000209050848160000190816109ff9190611c25565b5083816001019081610a119190611c25565b5082816003019081610a239190611c25565b5081816003019081610a359190611c25565b505050505050565b60008054906101000a900473ffffffffffffffffffffffffffffffffffffffff1681565b6060600060015467ffffffffffffffff811115610a8157610a8061150f565b5b604051908082528060200260200182016040528015610aba57816020015b610aa761110f565b815260200190600190039081610a9f5790505b5090506000805b600154811015610d6f573373ffffffffffffffffffffffffffffffffffffffff166002600083815260200190815260200160002060000160009054906101000a900473ffffffffffffffffffffffffffffffffffffffff1673ffffffffffffffffffffffffffffffffffffffff16148015610b635750600015156002600083815260200190815260200160002060040160009054906101000a900460ff161515145b15610d5c57600260008281526020019081526020016000206040518060c00160405290816000820160009054906101000a900473ffffffffffffffffffffffffffffffffffffffff1673ffffffffffffffffffffffffffffffffffffffff1673ffffffffffffffffffffffffffffffffffffffff16815260200160018201548152602001600282018054610bf690611936565b80601f0160208091040260200160405190810160405280929190818152602001828054610c2290611936565b8015610c6f5780601f10610c4457610100808354040283529160200191610c6f565b820191906000526020600020905b815481529060010190602001808311610c5257829003601f168201915b50505050508152602001600382018054610c8890611936565b80601f0160208091040260200160405190810160405280929190818152602001828054610cb490611936565b8015610d015780601f10610cd657610100808354040283529160200191610d01565b820191906000526020600020905b815481529060010190602001808311610ce457829003601f168201915b505050505081526020016004820160009054906101000a900460ff16151515158152602001600582015481525050838381518110610d4257610d41611967565b5b60200260200101819052508180610d58906119c5565b9250505b8080610d67906119c5565b915050610ac1565b5060008167ffffffffffffffff811115610d8c57610d8b61150f565b5b604051908082528060200260200182016040528015610dc557816020015b610db261110f565b815260200190600190039081610daa5790505b50905060005b600154811015610e2157838181518110610de857610de7611967565b5b6020026020010151828281518110610e0357610e02611967565b5b60200260200101819052508080610e19906119c5565b915050610dcb565b5080935050505090565b60608060006001548410610e74576040517f08c379a0000000000000000000000000000000000000000000000000000000008152600401610e6b90611dd0565b60405180910390fd5b6000600260008681526020019081526020016000209050600015158160040160009054906101000a900460ff16151514610ead57600080fd5b80600201816003018260000160009054906101000a900473ffffffffffffffffffffffffffffffffffffffff16828054610ee690611936565b80601f0160208091040260200160405190810160405280929190818152602001828054610f1290611936565b8015610f5f5780601f10610f3457610100808354040283529160200191610f5f565b820191906000526020600020905b815481529060010190602001808311610f4257829003601f168201915b50505050509250818054610f7290611936565b80601f0160208091040260200160405190810160405280929190818152602001828054610f9e90611936565b8015610feb5780601f10610fc057610100808354040283529160200191610feb565b820191906000526020600020905b815481529060010190602001808311610fce57829003601f168201915b50505050509150935093509350509193909250565b3373ffffffffffffffffffffffffffffffffffffffff166002600084815260200190815260200160002060000160009054906101000a900473ffffffffffffffffffffffffffffffffffffffff1673ffffffffffffffffffffffffffffffffffffffff16146110a4576040517f08c379a000000000000000000000000000000000000000000000000000000000815260040161109b90611e62565b60405180910390fd5b806002600084815260200190815260200160002060040160006101000a81548160ff0219169083151502179055507f90c03fdb3ba756f41c01353982e90798d484dbdcc5571fb39be23b1fee59490a8282604051611103929190611e82565b60405180910390a15050565b6040518060c00160405280600073ffffffffffffffffffffffffffffffffffffffff168152602001600081526020016060815260200160608152602001600015158152602001600081525090565b6040518060800160405280606081526020016060815260200160608152602001606081525090565b600081519050919050565b600082825260208201905092915050565b6000819050602082019050919050565b600073ffffffffffffffffffffffffffffffffffffffff82169050919050565b60006111dc826111b1565b9050919050565b6111ec816111d1565b82525050565b6000819050919050565b611205816111f2565b82525050565b600081519050919050565b600082825260208201905092915050565b60005b8381101561124557808201518184015260208101905061122a565b60008484015250505050565b6000601f19601f8301169050919050565b600061126d8261120b565b6112778185611216565b9350611287818560208601611227565b61129081611251565b840191505092915050565b60008115159050919050565b6112b08161129b565b82525050565b600060c0830160008301516112ce60008601826111e3565b5060208301516112e160208601826111fc565b50604083015184820360408601526112f98282611262565b915050606083015184820360608601526113138282611262565b915050608083015161132860808601826112a7565b5060a083015161133b60a08601826111fc565b508091505092915050565b600061135283836112b6565b905092915050565b6000602082019050919050565b600061137282611185565b61137c8185611190565b93508360208202850161138e856111a1565b8060005b858110156113ca57848403895281516113ab8582611346565b94506113b68361135a565b925060208a01995050600181019050611392565b50829750879550505050505092915050565b600060208201905081810360008301526113f68184611367565b905092915050565b6000604051905090565b600080fd5b600080fd5b61141b816111d1565b811461142657600080fd5b50565b60008135905061143881611412565b92915050565b60006020828403121561145457611453611408565b5b600061146284828501611429565b91505092915050565b600060808301600083015184820360008601526114888282611262565b915050602083015184820360208601526114a28282611262565b915050604083015184820360408601526114bc8282611262565b915050606083015184820360608601526114d68282611262565b9150508091505092915050565b600060208201905081810360008301526114fd818461146b565b905092915050565b600080fd5b600080fd5b7f4e487b7100000000000000000000000000000000000000000000000000000000600052604160045260246000fd5b61154782611251565b810181811067ffffffffffffffff821117156115665761156561150f565b5b80604052505050565b60006115796113fe565b9050611585828261153e565b919050565b600067ffffffffffffffff8211156115a5576115a461150f565b5b6115ae82611251565b9050602081019050919050565b82818337600083830152505050565b60006115dd6115d88461158a565b61156f565b9050828152602081018484840111156115f9576115f861150a565b5b6116048482856115bb565b509392505050565b600082601f83011261162157611620611505565b5b81356116318482602086016115ca565b91505092915050565b6000806040838503121561165157611650611408565b5b600083013567ffffffffffffffff81111561166f5761166e61140d565b5b61167b8582860161160c565b925050602083013567ffffffffffffffff81111561169c5761169b61140d565b5b6116a88582860161160c565b9150509250929050565b600080600080608085870312156116cc576116cb611408565b5b600085013567ffffffffffffffff8111156116ea576116e961140d565b5b6116f68782880161160c565b945050602085013567ffffffffffffffff8111156117175761171661140d565b5b6117238782880161160c565b935050604085013567ffffffffffffffff8111156117445761174361140d565b5b6117508782880161160c565b925050606085013567ffffffffffffffff8111156117715761177061140d565b5b61177d8782880161160c565b91505092959194509250565b611792816111d1565b82525050565b60006020820190506117ad6000830184611789565b92915050565b6117bc816111f2565b81146117c757600080fd5b50565b6000813590506117d9816117b3565b92915050565b6000602082840312156117f5576117f4611408565b5b6000611803848285016117ca565b91505092915050565b600082825260208201905092915050565b60006118288261120b565b611832818561180c565b9350611842818560208601611227565b61184b81611251565b840191505092915050565b60006060820190508181036000830152611870818661181d565b90508181036020830152611884818561181d565b90506118936040830184611789565b949350505050565b6118a48161129b565b81146118af57600080fd5b50565b6000813590506118c18161189b565b92915050565b600080604083850312156118de576118dd611408565b5b60006118ec858286016117ca565b92505060206118fd858286016118b2565b9150509250929050565b7f4e487b7100000000000000000000000000000000000000000000000000000000600052602260045260246000fd5b6000600282049050600182168061194e57607f821691505b60208210810361196157611960611907565b5b50919050565b7f4e487b7100000000000000000000000000000000000000000000000000000000600052603260045260246000fd5b7f4e487b7100000000000000000000000000000000000000000000000000000000600052601160045260246000fd5b60006119d0826111f2565b91507fffffffffffffffffffffffffffffffffffffffffffffffffffffffffffffffff8203611a0257611a01611996565b5b600182019050919050565b7f506c65617365207375626d69742031204d415449430000000000000000000000600082015250565b6000611a4360158361180c565b9150611a4e82611a0d565b602082019050919050565b60006020820190508181036000830152611a7281611a36565b9050919050565b60008190508160005260206000209050919050565b60006020601f8301049050919050565b600082821b905092915050565b600060088302611adb7fffffffffffffffffffffffffffffffffffffffffffffffffffffffffffffffff82611a9e565b611ae58683611a9e565b95508019841693508086168417925050509392505050565b6000819050919050565b6000611b22611b1d611b18846111f2565b611afd565b6111f2565b9050919050565b6000819050919050565b611b3c83611b07565b611b50611b4882611b29565b848454611aab565b825550505050565b600090565b611b65611b58565b611b70818484611b33565b505050565b5b81811015611b9457611b89600082611b5d565b600181019050611b76565b5050565b601f821115611bd957611baa81611a79565b611bb384611a8e565b81016020851015611bc2578190505b611bd6611bce85611a8e565b830182611b75565b50505b505050565b600082821c905092915050565b6000611bfc60001984600802611bde565b1980831691505092915050565b6000611c158383611beb565b9150826002028217905092915050565b611c2e8261120b565b67ffffffffffffffff811115611c4757611c4661150f565b5b611c518254611936565b611c5c828285611b98565b600060209050601f831160018114611c8f5760008415611c7d578287015190505b611c878582611c09565b865550611cef565b601f198416611c9d86611a79565b60005b82811015611cc557848901518255600182019150602085019450602081019050611ca0565b86831015611ce25784890151611cde601f891682611beb565b8355505b6001600288020188555050505b505050505050565b611d00816111f2565b82525050565b611d0f8161129b565b82525050565b600060c082019050611d2a6000830189611789565b611d376020830188611cf7565b8181036040830152611d49818761181d565b90508181036060830152611d5d818661181d565b9050611d6c6080830185611d06565b611d7960a0830184611cf7565b979650505050505050565b7f4e6f207375636820547765657400000000000000000000000000000000000000600082015250565b6000611dba600d8361180c565b9150611dc582611d84565b602082019050919050565b60006020820190508181036000830152611de981611dad565b9050919050565b7f596f752063616e206f6e6c792064656c65746520796f7574206f776e2074776560008201527f6574000000000000000000000000000000000000000000000000000000000000602082015250565b6000611e4c60228361180c565b9150611e5782611df0565b604082019050919050565b60006020820190508181036000830152611e7b81611e3f565b9050919050565b6000604082019050611e976000830185611cf7565b611ea46020830184611d06565b939250505056fea2646970667358221220263b9a164a6f5ae9b2f8a6ca57d4349e0280948c87c229d194b850691434ec8164736f6c63430008110033",
  "linkReferences": {},
  "deployedLinkReferences": {}
}